{
  "contractName": "FreelanceContract",
  "abi": [
    {
      "inputs": [],
      "stateMutability": "nonpayable",
      "type": "constructor"
    },
    {
      "anonymous": false,
      "inputs": [
        {
          "indexed": true,
          "internalType": "address",
          "name": "jobPoster",
          "type": "address"
        },
        {
          "indexed": true,
          "internalType": "address",
          "name": "jobSolver",
          "type": "address"
        },
        {
          "indexed": true,
          "internalType": "address",
          "name": "thirdParty",
          "type": "address"
        }
      ],
      "name": "ContractCompleted",
      "type": "event"
    },
    {
      "anonymous": false,
      "inputs": [
        {
          "indexed": true,
          "internalType": "address",
          "name": "jobPoster",
          "type": "address"
        },
        {
          "indexed": false,
          "internalType": "uint256",
          "name": "amount",
          "type": "uint256"
        }
      ],
      "name": "JobPosted",
      "type": "event"
    },
    {
      "anonymous": false,
      "inputs": [
        {
          "indexed": true,
          "internalType": "address",
          "name": "jobSolver",
          "type": "address"
        },
        {
          "indexed": false,
          "internalType": "uint256",
          "name": "amount",
          "type": "uint256"
        }
      ],
      "name": "PaymentReleased",
      "type": "event"
    },
    {
      "anonymous": false,
      "inputs": [
        {
          "indexed": true,
          "internalType": "address",
          "name": "thirdParty",
          "type": "address"
        }
      ],
      "name": "VerificationCompleted",
      "type": "event"
    },
    {
      "anonymous": false,
      "inputs": [
        {
          "indexed": true,
          "internalType": "address",
          "name": "jobSolver",
          "type": "address"
        }
      ],
      "name": "WorkSubmitted",
      "type": "event"
    },
    {
      "inputs": [],
      "name": "contractState",
      "outputs": [
        {
          "internalType": "enum FreelanceContract.ContractState",
          "name": "",
          "type": "uint8"
        }
      ],
      "stateMutability": "view",
      "type": "function"
    },
    {
      "inputs": [],
      "name": "jobPoster",
      "outputs": [
        {
          "internalType": "address",
          "name": "",
          "type": "address"
        }
      ],
      "stateMutability": "view",
      "type": "function"
    },
    {
      "inputs": [],
      "name": "jobSolver",
      "outputs": [
        {
          "internalType": "address",
          "name": "",
          "type": "address"
        }
      ],
      "stateMutability": "view",
      "type": "function"
    },
    {
      "inputs": [],
      "name": "jobSolverWork",
      "outputs": [
        {
          "internalType": "string",
          "name": "",
          "type": "string"
        }
      ],
      "stateMutability": "view",
      "type": "function"
    },
    {
      "inputs": [],
      "name": "jobVerificationCode",
      "outputs": [
        {
          "internalType": "string",
          "name": "",
          "type": "string"
        }
      ],
      "stateMutability": "view",
      "type": "function"
    },
    {
      "inputs": [],
      "name": "paymentReleased",
      "outputs": [
        {
          "internalType": "bool",
          "name": "",
          "type": "bool"
        }
      ],
      "stateMutability": "view",
      "type": "function"
    },
    {
      "inputs": [],
      "name": "specifiedPaymentAmount",
      "outputs": [
        {
          "internalType": "uint256",
          "name": "",
          "type": "uint256"
        }
      ],
      "stateMutability": "view",
      "type": "function"
    },
    {
      "inputs": [],
      "name": "thirdParty",
      "outputs": [
        {
          "internalType": "address",
          "name": "",
          "type": "address"
        }
      ],
      "stateMutability": "view",
      "type": "function"
    },
    {
      "inputs": [
        {
          "internalType": "address",
          "name": "_thirdParty",
          "type": "address"
        }
      ],
      "name": "setThirdParty",
      "outputs": [],
      "stateMutability": "nonpayable",
      "type": "function"
    },
    {
      "inputs": [
        {
          "internalType": "string",
          "name": "_verificationCode",
          "type": "string"
        },
        {
          "internalType": "uint256",
          "name": "_amount",
          "type": "uint256"
        }
      ],
      "name": "postJob",
      "outputs": [],
      "stateMutability": "payable",
      "type": "function"
    },
    {
      "inputs": [
        {
          "internalType": "string",
          "name": "_work",
          "type": "string"
        }
      ],
      "name": "submitWork",
      "outputs": [],
      "stateMutability": "nonpayable",
      "type": "function"
    },
    {
      "inputs": [
        {
          "internalType": "string",
          "name": "_verificationCode",
          "type": "string"
        }
      ],
      "name": "verifyWork",
      "outputs": [],
      "stateMutability": "nonpayable",
      "type": "function"
    }
  ],
  "bytecode": "0x608060405234801561001057600080fd5b506000600660016101000a81548160ff0219169083600481111561005d577f4e487b7100000000000000000000000000000000000000000000000000000000600052602160045260246000fd5b02179055506000600660006101000a81548160ff02191690831515021790555061147e8061008c6000396000f3fe6080604052600436106100a75760003560e01c8063bb18fd3811610064578063bb18fd38146101a8578063c0fcc75d146101d3578063c63735b3146101fe578063c7325c7b14610229578063e02ea48414610254578063eb9a4e931461027f576100a7565b8063095da7f6146100ac5780632fef90b7146100d557806340f8bfeb146100fe578063601846f31461012957806376c32fe51461015457806385209ee01461017d575b600080fd5b3480156100b857600080fd5b506100d360048036038101906100ce9190610dfd565b61029b565b005b3480156100e157600080fd5b506100fc60048036038101906100f79190610dfd565b610470565b005b34801561010a57600080fd5b5061011361084b565b604051610120919061119e565b60405180910390f35b34801561013557600080fd5b5061013e610851565b60405161014b919061111c565b60405180910390f35b34801561016057600080fd5b5061017b60048036038101906101769190610dd4565b6108df565b005b34801561018957600080fd5b50610192610923565b60405161019f9190611101565b60405180910390f35b3480156101b457600080fd5b506101bd610936565b6040516101ca91906110cb565b60405180910390f35b3480156101df57600080fd5b506101e861095a565b6040516101f591906110cb565b60405180910390f35b34801561020a57600080fd5b50610213610980565b60405161022091906110e6565b60405180910390f35b34801561023557600080fd5b5061023e610993565b60405161024b919061111c565b60405180910390f35b34801561026057600080fd5b50610269610a21565b60405161027691906110cb565b60405180910390f35b61029960048036038101906102949190610e3e565b610a47565b005b60018060048111156102d6577f4e487b7100000000000000000000000000000000000000000000000000000000600052602160045260246000fd5b600660019054906101000a900460ff16600481111561031e577f4e487b7100000000000000000000000000000000000000000000000000000000600052602160045260246000fd5b1461035e576040517f08c379a00000000000000000000000000000000000000000000000000000000081526004016103559061117e565b60405180910390fd5b8160049080519060200190610374929190610c9f565b5033600160006101000a81548173ffffffffffffffffffffffffffffffffffffffff021916908373ffffffffffffffffffffffffffffffffffffffff1602179055506002600660016101000a81548160ff02191690836004811115610402577f4e487b7100000000000000000000000000000000000000000000000000000000600052602160045260246000fd5b0217905550600160009054906101000a900473ffffffffffffffffffffffffffffffffffffffff1673ffffffffffffffffffffffffffffffffffffffff167ff04a1f236f845c044c77f6e91793ed8787cafff53f0d8604a32abf85dece407360405160405180910390a25050565b600260009054906101000a900473ffffffffffffffffffffffffffffffffffffffff1673ffffffffffffffffffffffffffffffffffffffff163373ffffffffffffffffffffffffffffffffffffffff1614610500576040517f08c379a00000000000000000000000000000000000000000000000000000000081526004016104f79061115e565b60405180910390fd5b600280600481111561053b577f4e487b7100000000000000000000000000000000000000000000000000000000600052602160045260246000fd5b600660019054906101000a900460ff166004811115610583577f4e487b7100000000000000000000000000000000000000000000000000000000600052602160045260246000fd5b146105c3576040517f08c379a00000000000000000000000000000000000000000000000000000000081526004016105ba9061117e565b60405180910390fd5b60036040516020016105d591906110b4565b60405160208183030381529060405280519060200120826040516020016105fc919061109d565b604051602081830303815290604052805190602001201461061b610c2e565b9061065c576040517f08c379a0000000000000000000000000000000000000000000000000000000008152600401610653919061111c565b60405180910390fd5b506003600660016101000a81548160ff021916908360048111156106a9577f4e487b7100000000000000000000000000000000000000000000000000000000600052602160045260246000fd5b0217905550600660009054906101000a900460ff16156106fe576040517f08c379a00000000000000000000000000000000000000000000000000000000081526004016106f59061113e565b60405180910390fd5b6001600660006101000a81548160ff021916908315150217905550600160009054906101000a900473ffffffffffffffffffffffffffffffffffffffff1673ffffffffffffffffffffffffffffffffffffffff166108fc6005549081150290604051600060405180830381858888f19350505050158015610783573d6000803e3d6000fd5b506004600660016101000a81548160ff021916908360048111156107d0577f4e487b7100000000000000000000000000000000000000000000000000000000600052602160045260246000fd5b0217905550600160009054906101000a900473ffffffffffffffffffffffffffffffffffffffff1673ffffffffffffffffffffffffffffffffffffffff167fdf20fd1e76bc69d672e4814fafb2c449bba3a5369d8359adf9e05e6fde87b05660055460405161083f919061119e565b60405180910390a25050565b60055481565b6003805461085e90611305565b80601f016020809104026020016040519081016040528092919081815260200182805461088a90611305565b80156108d75780601f106108ac576101008083540402835291602001916108d7565b820191906000526020600020905b8154815290600101906020018083116108ba57829003601f168201915b505050505081565b80600260006101000a81548173ffffffffffffffffffffffffffffffffffffffff021916908373ffffffffffffffffffffffffffffffffffffffff16021790555050565b600660019054906101000a900460ff1681565b60008054906101000a900473ffffffffffffffffffffffffffffffffffffffff1681565b600160009054906101000a900473ffffffffffffffffffffffffffffffffffffffff1681565b600660009054906101000a900460ff1681565b600480546109a090611305565b80601f01602080910402602001604051908101604052809291908181526020018280546109cc90611305565b8015610a195780601f106109ee57610100808354040283529160200191610a19565b820191906000526020600020905b8154815290600101906020018083116109fc57829003601f168201915b505050505081565b600260009054906101000a900473ffffffffffffffffffffffffffffffffffffffff1681565b6000806004811115610a82577f4e487b7100000000000000000000000000000000000000000000000000000000600052602160045260246000fd5b600660019054906101000a900460ff166004811115610aca577f4e487b7100000000000000000000000000000000000000000000000000000000600052602160045260246000fd5b14610b0a576040517f08c379a0000000000000000000000000000000000000000000000000000000008152600401610b019061117e565b60405180910390fd5b336000806101000a81548173ffffffffffffffffffffffffffffffffffffffff021916908373ffffffffffffffffffffffffffffffffffffffff1602179055508260039080519060200190610b60929190610c9f565b50816005819055506001600660016101000a81548160ff02191690836004811115610bb4577f4e487b7100000000000000000000000000000000000000000000000000000000600052602160045260246000fd5b021790555060008054906101000a900473ffffffffffffffffffffffffffffffffffffffff1673ffffffffffffffffffffffffffffffffffffffff167fc945282605af46d120786319fe276c4a35846960c3d0f8db585c9232b37b831b600554604051610c21919061119e565b60405180910390a2505050565b60606001600660016101000a81548160ff02191690836004811115610c7c577f4e487b7100000000000000000000000000000000000000000000000000000000600052602160045260246000fd5b021790555060405180606001604052806031815260200161141860319139905090565b828054610cab90611305565b90600052602060002090601f016020900481019282610ccd5760008555610d14565b82601f10610ce657805160ff1916838001178555610d14565b82800160010185558215610d14579182015b82811115610d13578251825591602001919060010190610cf8565b5b509050610d219190610d25565b5090565b5b80821115610d3e576000816000905550600101610d26565b5090565b6000610d55610d50846111ea565b6111b9565b905082815260208101848484011115610d6d57600080fd5b610d788482856112c3565b509392505050565b600081359050610d8f816113e9565b92915050565b600082601f830112610da657600080fd5b8135610db6848260208601610d42565b91505092915050565b600081359050610dce81611400565b92915050565b600060208284031215610de657600080fd5b6000610df484828501610d80565b91505092915050565b600060208284031215610e0f57600080fd5b600082013567ffffffffffffffff811115610e2957600080fd5b610e3584828501610d95565b91505092915050565b60008060408385031215610e5157600080fd5b600083013567ffffffffffffffff811115610e6b57600080fd5b610e7785828601610d95565b9250506020610e8885828601610dbf565b9150509250929050565b610e9b81611256565b82525050565b610eaa81611268565b82525050565b610eb9816112b1565b82525050565b6000610eca8261122f565b610ed4818561123a565b9350610ee48185602086016112d2565b610eed816113c4565b840191505092915050565b6000610f038261122f565b610f0d818561124b565b9350610f1d8185602086016112d2565b80840191505092915050565b60008154610f3681611305565b610f40818661124b565b94506001821660008114610f5b5760018114610f6c57610f9f565b60ff19831686528186019350610f9f565b610f758561121a565b60005b83811015610f9757815481890152600182019150602081019050610f78565b838801955050505b50505092915050565b6000610fb560188361123a565b91507f5061796d656e7420616c72656164792072656c656173656400000000000000006000830152602082019050919050565b6000610ff560278361123a565b91507f4f6e6c792074686972642070617274792063616e2063616c6c2074686973206660008301527f756e6374696f6e000000000000000000000000000000000000000000000000006020830152604082019050919050565b600061105b60168361123a565b91507f496e76616c696420636f6e7472616374207374617465000000000000000000006000830152602082019050919050565b611097816112a7565b82525050565b60006110a98284610ef8565b915081905092915050565b60006110c08284610f29565b915081905092915050565b60006020820190506110e06000830184610e92565b92915050565b60006020820190506110fb6000830184610ea1565b92915050565b60006020820190506111166000830184610eb0565b92915050565b600060208201905081810360008301526111368184610ebf565b905092915050565b6000602082019050818103600083015261115781610fa8565b9050919050565b6000602082019050818103600083015261117781610fe8565b9050919050565b600060208201905081810360008301526111978161104e565b9050919050565b60006020820190506111b3600083018461108e565b92915050565b6000604051905081810181811067ffffffffffffffff821117156111e0576111df611395565b5b8060405250919050565b600067ffffffffffffffff82111561120557611204611395565b5b601f19601f8301169050602081019050919050565b60008190508160005260206000209050919050565b600081519050919050565b600082825260208201905092915050565b600081905092915050565b600061126182611287565b9050919050565b60008115159050919050565b6000819050611282826113d5565b919050565b600073ffffffffffffffffffffffffffffffffffffffff82169050919050565b6000819050919050565b60006112bc82611274565b9050919050565b82818337600083830152505050565b60005b838110156112f05780820151818401526020810190506112d5565b838111156112ff576000848401525b50505050565b6000600282049050600182168061131d57607f821691505b6020821081141561133157611330611366565b5b50919050565b7f4e487b7100000000000000000000000000000000000000000000000000000000600052602160045260246000fd5b7f4e487b7100000000000000000000000000000000000000000000000000000000600052602260045260246000fd5b7f4e487b7100000000000000000000000000000000000000000000000000000000600052604160045260246000fd5b6000601f19601f8301169050919050565b600581106113e6576113e5611337565b5b50565b6113f281611256565b81146113fd57600080fd5b50565b611409816112a7565b811461141457600080fd5b5056fe596f7572207375626d697373696f6e20646f6573206e6f74206d6565742074686520726571756972656d656e74732e2e2ea2646970667358221220bc3b903391dca43d259c28d785f2f363fccd6d5d2c4f0714c655a8eaf83771bf64736f6c63430008000033",
  "immutableReferences": {},
  "source": "// File: FreelanceContract.sol\n// SPDX-License-Identifier: MIT\npragma solidity ^0.8.0;\n\ncontract FreelanceContract {\n    address public jobPoster;\n    address public jobSolver;\n    address public thirdParty;\n\n    string public jobVerificationCode;\n    string public jobSolverWork;\n\n    uint public specifiedPaymentAmount;\n    bool public paymentReleased;\n\n    enum ContractState { Created, JobPosted, WorkSubmitted, Verified, PaymentDone }\n    ContractState public contractState;\n\n    event JobPosted(address indexed jobPoster, uint256 amount);\n    event WorkSubmitted(address indexed jobSolver);\n    event VerificationCompleted(address indexed thirdParty);\n    event PaymentReleased(address indexed jobSolver, uint256 amount);\n    event ContractCompleted(address indexed jobPoster, address indexed jobSolver, address indexed thirdParty);\n\n    modifier onlyJobPoster() {\n        require(msg.sender == jobPoster, \"Only job poster can call this function\");\n        _;\n    }\n\n    modifier onlyJobSolver() {\n        require(msg.sender == jobSolver, \"Only job solver can call this function\");\n        _;\n    }\n\n    modifier onlyThirdParty() {\n        require(msg.sender == thirdParty, \"Only third party can call this function\");\n        _;\n    }\n\n    modifier inState(ContractState _state) {\n        require(contractState == _state, \"Invalid contract state\");\n        _;\n    }\n\n    constructor() {\n        contractState = ContractState.Created;\n        paymentReleased = false;\n    }\n\n    function setThirdParty(address _thirdParty) external {\n        thirdParty = _thirdParty;\n    }\n\n    function postJob(string memory _verificationCode, uint _amount) public payable inState(ContractState.Created) {\n        jobPoster = msg.sender;\n        jobVerificationCode = _verificationCode;\n        specifiedPaymentAmount = _amount;\n        contractState = ContractState.JobPosted;\n        emit JobPosted(jobPoster, specifiedPaymentAmount);\n    }\n\n    function submitWork(string memory _work) external inState(ContractState.JobPosted) {\n        jobSolverWork = _work;\n        jobSolver = msg.sender;\n        contractState = ContractState.WorkSubmitted;\n        emit WorkSubmitted(jobSolver);\n    }\n\n    function verifyWork(string memory _verificationCode) external onlyThirdParty inState(ContractState.WorkSubmitted) {\n        require(keccak256(abi.encodePacked(_verificationCode)) == keccak256(abi.encodePacked(jobVerificationCode)), stateReverter());\n        contractState = ContractState.Verified;\n        require(!paymentReleased, \"Payment already released\");\n        paymentReleased = true;\n        payable(jobSolver).transfer(specifiedPaymentAmount);\n        contractState = ContractState.PaymentDone;\n        emit PaymentReleased(jobSolver, specifiedPaymentAmount);\n    }\n\n    function stateReverter() internal returns (string memory){\n        contractState = ContractState.JobPosted;\n        return(\"Your submission does not meet the requirements...\");\n    }\n}\n\n",
  "sourcePath": "D:\\Columbia\\6998-Web3\\web3-freelancer\\backend\\src\\contract\\contracts\\FreelanceContract.sol",
  "compiler": {
    "name": "solc",
    "version": "0.8.0+commit.c7dfd78e.Emscripten.clang"
  },
  "schemaVersion": "3.4.16",
  "updatedAt": "2023-12-02T06:45:28.480Z",
  "devdoc": {
    "kind": "dev",
    "methods": {},
    "version": 1
  },
  "userdoc": {
    "kind": "user",
    "methods": {},
    "version": 1
  }
}